:100000000C9434000C9451000C9451000C94510049
:100010000C9451000C9451000C9451000C9451001C
:100020000C9451000C9451000C9451000C9451000C
:100030000C9451000C9451000C943D020C9451000E
:100040000C9451000C9451000C94E4010C94510058
:100050000C9451000C9451000C9451000C945100DC
:100060000C9451000C94510011241FBECFEFD8E026
:10007000DEBFCDBF11E0A0E0B1E0ECE7FBE002C0E5
:1000800005900D92AE35B107D9F721E0AEE5B1E0AC
:1000900001C01D92AF37B207E1F70E94A9020C948C
:1000A000BC050C94000010926201ECE7F0E088E0DF
:1000B000808380818068808380818062808387E8FC
:1000C00080937A0010927B00089580917A0080647A
:1000D00080937A008FE99FE00197F1F700C000005C
:1000E000809179001F928F938AE391E09F938F9381
:1000F0000E94DE022091790030E0A0E1B4E00E948D
:10010000CF02DC01CB019757A140B1090F900F90AE
:100110000F900F90811520E89207A105B105D4F446
:10012000811520E892072FEFA207B20784F0682F0D
:10013000880F770B7F936F9385E491E09F938F9364
:100140000E94DE020F900F900F900F90089560E0D4
:1001500070E8F0CF6FEF7FE7EDCF08950895089531
:100160000895089508950895089520917901309192
:100170007A0128173907C1F49091670180916601CF
:10018000981791F0E091660181E08E0F80936601EF
:10019000F0E0ED59FE4F868190916601903110F0AC
:1001A0001092660190E008958EEF9FEF08952091E0
:1001B0007B0130917C012617370751F49091C000E4
:1001C00095FFFCCF8093C600082E000C990B089574
:1001D0008EEF9FEF089586E1E3E6F1E0DF011D92E7
:1001E0008A95E9F7BFEF22E587E0B15020408040D3
:1001F000E1F700C0000087EC87BD82E084BD85BDCB
:1002000080936E0085BB92E29093C4001092C5006B
:100210008093C00086E08093C20088E98093C1008B
:1002200080E284B915B8E9E7F1E08EE091E09383CC
:10023000828380E091E091838083089508958F3FC9
:1002400011F08F5F08958FEF08958F3F2FEF920782
:1002500011F0019608958FEF9FEF0895809163014B
:1002600087FF0895789408958FB7E3E6F1E09081D1
:100270008078892B8083F89408958BE591E09F9393
:100280008F930E94DE020F900F9008959091670166
:1002900080916601981738F480916701909166010A
:1002A000805F891B08958091670190916601891B89
:1002B0000895CF93C82F8FB7909163018078892BD1
:1002C00080936301F8940E944601C81798F4E09166
:1002D0006601EC0FE03160F4F0E0ED59FE4F8681ED
:1002E00090E02091630127FF01C07894CF91089599
:1002F000E051F2CF8FEF9FEFF4CF8FB79091630172
:100300008078892B80936301F8948091C00087FFE7
:1003100008C08091C600809369018091C00087FD6C
:10032000F8CF1092660110926701109268018091D7
:10033000630187FF0895789408952FB73091630182
:100340002078232B20936301F894209165012823C2
:1003500031E009F430E090916501982B90936501AC
:100360008091630187FF01C07894832F0895982FAF
:100370008FB7209163018078822B80936301F8947A
:1003800020916501292381E009F480E02091650135
:1003900090959223909365019091630197FF089542
:1003A0007894089590916501982381E009F480E0A4
:1003B0000895811102C02D9808952D9A089595B140
:1003C00080E2892785B908951F920F920FB60F9288
:1003D00011248F939F93EF93FF938091C6008235F2
:1003E00039F180936101E091670191E09E0F909354
:1003F0006701F0E0ED59FE4F8683809167018031FF
:1004000010F0109267019091670180916601981732
:10041000F9F0E0916701F0E0ED59FE4F1682FF918F
:10042000EF919F918F910F900FBE0F901F90189595
:10043000909161019034A9F698E088E10FB6F894A4
:10044000A895809360000FBE90936000A895FFCFA1
:100450008091670181110BC08FE0809367018091CB
:1004600068018F3F09F08F5F80936801D2CF809140
:100470006701815080936701F2CF1F920F920FB6F0
:100480000F9211242F933F934F935F936F937F931A
:100490008F939F93AF93BF93EF93FF9380916001EE
:1004A0008F5F8530E0F11092600180915F018F5F76
:1004B00080935F0180915E018823C1F08091640187
:1004C0008F3F09F08F5F80936401FF91EF91BF919F
:1004D000AF919F918F917F916F915F914F913F91DC
:1004E0002F910F900FBE0F901F90189581E0809371
:1004F0005E01789480915F0180FD19C081FD12C07A
:1005000082FD1BC083FD1CC084FD1DC085FD12C083
:1005100086FD1CC087FF08C00E94B40005C0809300
:100520006001D3CF0E94AE0010925E01CECF0E9438
:10053000AD00FACF0E94B200F7CF0E94AF00F4CF17
:100540000E94B000F1CF0E94B100EECF0E94B30034
:10055000EBCF0E94EB000E9453008CE191E09F934F
:100560008F9385E291E09F938F9381E391E09F9336
:100570008F9383E591E09F938F930E94DE020E9408
:100580003D0178948DB79EB708960FB6F8949EBF3C
:100590000FBE8DBF0E941E010E946500FBCFA29F6F
:1005A000B001B39FC001A39F700D811D1124911D47
:1005B000B29F700D811D1124911D0895A0E0B0E03F
:1005C000E4EEF2E00C949505AE014B5F5F4FFA014B
:1005D00061917191AF0180917B0190917C010E94AA
:1005E000F402E2E00C94B105ABE0B0E0EAEFF2E037
:1005F0000C9485056C017B018A01FC01178216822F
:10060000838181FFCCC1CE0101963C01F60193812B
:10061000F70193FD859193FF81917F01882309F470
:10062000BAC1853239F493FD859193FF81917F01A1
:10063000853229F4B60190E00E94EB04E7CF912CBB
:10064000212C312CFFE1F315D8F08B3279F038F4FE
:10065000803279F08332A1F4232D20611DC08D32C8
:1006600061F0803369F4232D216016C0832D8260F0
:10067000382EE32DE4603E2E2AC0F32DF8601DC015
:1006800037FC2DC020ED280F2A3040F08E32B9F40F
:1006900036FC81C1232D2064322E19C036FE06C0DF
:1006A0008AE0989E200D1124922E11C0EAE02E9E21
:1006B000200D1124222EF32DF0623F2E08C08C361F
:1006C00021F4832D8068382E02C0883641F4F7016A
:1006D00093FD859193FF81917F018111B3CF982F75
:1006E0009F7D9554933028F40C5F1F4F9FE39983AF
:1006F0000DC0833631F0833771F0833509F059C06E
:1007000021C0F801808189830E5F1F4F8824839464
:10071000912C530113C02801F2E04F0E511CF80137
:10072000A080B18036FE03C0692D70E002C06FEF7B
:100730007FEFC5010E94E0044C018201F32DFF7799
:100740003F2E16C0280122E0420E511CF801A08065
:10075000B18036FE03C0692D70E002C06FEF7FEFFD
:10076000C5010E94D5044C01F32DF0683F2E820193
:1007700033FC1BC0822D90E088169906B0F4B601B8
:1007800080E290E00E94EB042A94F4CFF50137FC5C
:10079000859137FE81915F01B60190E00E94EB04E4
:1007A00021102A9421E0821A91088114910471F792
:1007B000E8C0843611F0893641F5F80137FE07C0EC
:1007C00060817181828193810C5F1F4F08C06081BD
:1007D0007181072E000C880B990B0E5F1F4FF32DB4
:1007E000FF763F2E97FF09C0909580957095619593
:1007F0007F4F8F4F9F4FF0683F2E2AE030E0A301DC
:100800000E942705882E861845C0853731F4232D90
:100810002F7EB22E2AE030E025C0932D997FB92E8D
:100820008F36C1F018F4883579F0B5C0803719F0EB
:10083000883721F0B0C0E92FE061BE2EB4FE0DC0B4
:10084000FB2DF460BF2E09C034FE0AC0292F26609C
:10085000B22E06C028E030E005C020E130E002C042
:1008600020E132E0F801B7FE07C06081718182812A
:1008700093810C5F1F4F06C06081718180E090E022
:100880000E5F1F4FA3010E942705882E8618FB2D9F
:10089000FF773F2E36FE0DC0232D2E7FA22E89140A
:1008A00058F434FE0BC032FC09C0832D8E7EA82E76
:1008B00005C0B82CA32C03C0B82C01C0B92CA4FED1
:1008C0000FC0FE01E80DF11D8081803321F49A2DC7
:1008D000997EA92E09C0A2FE06C0B394B39404C0A9
:1008E0008A2D867809F0B394A3FC11C0A0FE06C03F
:1008F000B21488F4280C922C9B180EC0B21460F429
:10090000B60180E290E00E94EB04B394F7CFB214FA
:1009100018F42B1802C0982C212CA4FE10C0B6018C
:1009200080E390E00E94EB04A2FE17C0A1FC03C08C
:1009300088E790E002C088E590E0B6010CC08A2DFF
:10094000867859F0A1FE02C08BE201C080E2A7FCCC
:100950008DE2B60190E00E94EB04891438F4B601F0
:1009600080E390E00E94EB049A94F7CF8A94F3011D
:10097000E80DF11D8081B60190E00E94EB0481102A
:10098000F5CF222009F442CEB60180E290E00E9429
:10099000EB042A94F6CFF6018681978102C08FEF8F
:1009A0009FEF2B96E2E10C94A105FC0105906150AC
:1009B00070400110D8F7809590958E0F9F1F089575
:1009C000FC016150704001900110D8F7809590951E
:1009D0008E0F9F1F08950F931F93CF93DF93FB01FB
:1009E000238121FD03C08FEF9FEF2CC022FF16C093
:1009F00046815781248135814217530744F4A081F1
:100A0000B1819D012F5F3F4F318320838C932681DD
:100A100037812F5F3F4F3783268314C08B01EC0152
:100A2000FB010084F185E02D0995892BE1F6D801C1
:100A300016968D919C911797019617969C938E937D
:100A40001697CE01DF91CF911F910F910895FA0172
:100A5000AA27283051F1203181F1E8946F936E7FFD
:100A60006E5F7F4F8F4F9F4FAF4FB1E03ED0B4E0EE
:100A70003CD0670F781F891F9A1FA11D680F791F2F
:100A80008A1F911DA11D6A0F711D811D911DA11D40
:100A900020D009F468943F912AE0269F1124301950
:100AA000305D3193DEF6CF010895462F4770405DEB
:100AB0004193B3E00FD0C9F7F6CF462F4F70405D9A
:100AC0004A3318F0495D31FD4052419302D0A9F7F5
:100AD000EACFB4E0A6959795879577956795BA95EF
:100AE000C9F700976105710508959B01AC010A2EB5
:100AF00006945795479537952795BA95C9F7620F8C
:100B0000731F841F951FA01D08952F923F924F922F
:100B10005F926F927F928F929F92AF92BF92CF928D
:100B2000DF92EF92FF920F931F93CF93DF93CDB796
:100B3000DEB7CA1BDB0B0FB6F894DEBF0FBECDBF0E
:100B400009942A88398848885F846E847D848C84DF
:100B50009B84AA84B984C884DF80EE80FD800C81E8
:100B60001B81AA81B981CE0FD11D0FB6F894DEBFCB
:0C0B70000FBECDBFED010895F894FFCF3B
:100B7C0000000001000000000000B50000000000B3
:100B8C00000200000000D7000000000031303A32B3
:100B9C00323A3533004170722020392032303139ED
:100BAC00000A0D4D6F6462757300414443483D204B
:100BBC002575202000566572737563683A2025648C
:0E0BCC00200D0025732025732025730A0D00CF
:00000001FF
