:100000000C9434000C9451000C9451000C94510049
:100010000C9451000C9451000C9451000C9451001C
:100020000C9451000C9451000C9451000C9451000C
:100030000C9451000C9451000C9448040C94510001
:100040000C9451000C9451000C94EF030C9451004B
:100050000C9451000C9451000C9451000C945100DC
:100060000C9451000C94510011241FBECFEFD8E026
:10007000DEBFCDBF11E0A0E0B1E0EAEFF3E102C0E6
:1000800005900D92AE34B107D9F721E0AEE4B1E0AE
:1000900001C01D92A839B207E1F70E94B4040C9484
:1000A000FB090C94000086E2E6E5F1E0DF011D9219
:1000B0008A95E9F7ECE7F0E088E080838081806C46
:1000C000808380818062808387E880937A001092A9
:1000D0007B0008958F3F2FEF920711F0019608954E
:1000E0008FEF9FEF089590ED980F9A3040F09FEBBF
:1000F000980F963010F08FEF089587530895892F49
:1001000008956F927F928F929F92AF92BF92DF92EB
:10011000EF92FF920F931F93CF93DF9300D01F9224
:10012000CDB7DEB7009177010930B0F0809157016B
:100130008A33A1F082E00F900F900F90DF91CF9162
:100140001F910F91FF90EF90DF90BF90AF909F9025
:100150008F907F906F90089581E0EDCF10E0F801CF
:10016000EA5AFE4F80818A3011F083E0E4CFF80133
:10017000EB5AFE4F80818D3011F084E0DCCFC80156
:10018000039780FF02C085E0D6CFA80142505109F5
:1001900021E081E090E0FC01E95AFE4F808190ED82
:1001A000980F9A3018F081548630B8F52F5F822F5F
:1001B00090E0841795077CF3780184E0E81AF10851
:1001C00021E030E081E090E0FC01E95AFE4F8081BF
:1001D000380F2F5F822F90E08E159F05ACF331957D
:1001E0001F923F938AE391E09F938F931F9283E046
:1001F0008F93CE0101969F938F930E940307F8017E
:10020000ED5AFE4F0FB6F894DEBF0FBECDBF9981F9
:100210008081981721F087E08ECF86E08CCF40E078
:1002200031E081E090E01AC029EC250FFC01E85A8A
:10023000FE4F908180ED890F8A3028F5E42FF0E0A1
:10024000E95AFE4F90E1299F800D112480833E5F83
:100250004F5F832F90E08E159F05FCF4FC01E95A57
:10026000FE4F508120ED250F2A3000F32FEB250F94
:100270002630D0F2FC01E85AFE4F908180ED890FC4
:100280008A3048F02FEF8FEB890F863020F489EC0D
:10029000890F2F3F99F688E04ECF9091570191300A
:1002A00011F080E048CF80915801843009F061C09E
:1002B00020915901022E000C330B322F22278091FE
:1002C0005A01082E000C990B282B392B80915B01C9
:1002D000082E000C990B582F442780915C01082EA2
:1002E000000C990B842B952BAC01415051094D37D3
:1002F000510508F445C084E88093580183E0809359
:10030000590103E08AE390E00E94CC0697E5E92ECC
:1003100091E0F92ED12C10E02AE3822E21E0922EDA
:100320003701F70181917F011F928F938AE3A82EF5
:1003300081E0B82E9F928F920E94B606F3018081D1
:10034000180FD3940F900F900F900F900D11E8CFCE
:1003500011951F921F93BF92AF920E94B6068CE434
:1003600091E00E94D3060F900F900F900F9080E0C5
:10037000E2CE8068809358019093590103E0C2CF88
:100380002130310541F084E88093580182E0809368
:10039000590103E0B7CF0197B1F782E0809359018B
:1003A00080917A0190917B0190935A0180917A011A
:1003B00090917B0180935B0105E0A4CF8A3319F112
:1003C0009091770191110EC08091780190917901FF
:1003D0008F3F2FEF920709F0019690937901809358
:1003E0007801089590917701903270F7E09177014C
:1003F00091E09E0F90937701F0E0EA5AFE4F8183DF
:100400008A30E9F0089580917701882369F080911E
:100410007801909179018F3F2FEF920709F00196B3
:100420009093790180937801E0917701F0E0EA5AA6
:10043000FE4F8AE3818381E08093770108950E94D3
:100440008100882369F080917801909179018F3F34
:100450002FEF920709F0019690937901809378012C
:1004600010927701089580917A00806480937A00D9
:100470008FE99FE00197F1F700C0000060917900DB
:10048000693548F570E080E090E00E947F0524EF38
:1004900031E849E854E40E940B062BE334E840E9D4
:1004A00057E40E94DA042DEC39E346E856E40E9452
:1004B000DA040E94470570937B0160937A01809172
:1004C0009201909193010E9478068F3F2FEF92073F
:1004D000D1F00C94DE0170E080E090E00E947F0596
:1004E0002BE137EA4AE754E40E940B0628E63BE991
:1004F00042E857E40E94DA0423ED33E846E756E485
:100500000E94DA04D6CF08952091780130917901C4
:10051000809150019091510128173907C9F08091BD
:10052000780190917901909351018093500180ED71
:1005300097E090934F0180934E0181E00E94E40385
:100540008FE391E09F938F930E94B6060F900F90D8
:1005500080914E0190914F01009739F0019790934F
:100560004F0180934E01892B09F0089580E00C948F
:10057000E403089508950895089508950895089549
:10058000209192013091930128173907C1F490917D
:10059000800180917F01981791F0E0917F0181E0C7
:1005A0008E0F80937F01F0E0E458FE4F868190919A
:1005B0007F01903110F010927F0190E008958EEF4E
:1005C0009FEF0895209194013091950126173707E8
:1005D00051F49091C00095FFFCCF8093C600082E87
:1005E000000C990B08958EEF9FEF089586E1ECE7DC
:1005F000F1E0DF011D928A95E9F7BFEF22E587E080
:10060000B15020408040E1F700C0000087EC87BD7A
:1006100082E084BD85BD80936E0085BB92E290939D
:10062000C4001092C5008093C00086E08093C20091
:1006300088E98093C10080E284B915B8E2E9F1E06D
:100640008EE091E09383828380E091E091838083C8
:10065000089508958F3F11F08F5F08958FEF0895EB
:100660008F3F2FEF920711F0019608958FEF9FEFC4
:10067000089580917C0187FF0895789408958FB73D
:10068000ECE7F1E090818078892B8083F8940895DD
:100690008BE491E09F938F930E94B6060F900F908A
:1006A00008959091800180917F01981738F480918E
:1006B000800190917F01805F891B08958091800166
:1006C00090917F01891B0895CF93C82F8FB7909188
:1006D0007C018078892B80937C01F8940E945103DF
:1006E000C81798F4E0917F01EC0FE03160F4F0E07E
:1006F000E458FE4F868190E020917C0127FF01C0E5
:100700007894CF910895E051F2CF8FEF9FEFF4CF1F
:100710008FB790917C018078892B80937C01F8942D
:100720008091C00087FF08C08091C600809382013D
:100730008091C00087FDF8CF10927F011092800158
:100740001092810180917C0187FF0895789408952B
:100750002FB730917C012078232B20937C01F894D3
:1007600020917E01282331E009F430E090917E0150
:10077000982B90937E0180917C0187FF01C0789433
:10078000832F0895982F8FB720917C018078822B3A
:1007900080937C01F89420917E01292381E009F463
:1007A00080E020917E019095922390937E0190911C
:1007B0007C0197FF08957894089590917E01982385
:1007C00081E009F480E00895811102C02D98089518
:1007D0002D9A089595B180E2892785B908951F92D1
:1007E0000F920FB60F9211248F939F93EF93FF9365
:1007F0008091C600823539F180935501E0918001E6
:1008000091E09E0F90938001F0E0E458FE4F8683C4
:1008100080918001803110F01092800190918001D0
:1008200080917F019817F9F0E0918001F0E0E458A1
:10083000FE4F1682FF91EF919F918F910F900FBE07
:100840000F901F901895909155019034A9F698E05B
:1008500088E10FB6F894A895809360000FBE90933E
:100860006000A895FFCF8091800181110BC08FE0BF
:1008700080938001809181018F3F09F08F5F809389
:100880008101D2CF80918001815080938001F2CF8D
:100890001F920F920FB60F9211242F933F934F93F5
:1008A0005F936F937F938F939F93AF93BF93EF93D8
:1008B000FF93809154018F5F8530E0F110925401D5
:1008C000809153018F5F809353018091520188235F
:1008D000C1F080917D018F3F09F08F5F80937D0192
:1008E000FF91EF91BF91AF919F918F917F916F9108
:1008F0005F914F913F912F910F900FBE0F901F90DE
:10090000189581E08093520178948091530180FD85
:1009100019C081FD12C082FD1BC083FD1CC084FD77
:100920001DC085FD12C086FD1CC087FF08C00E9447
:10093000BF0205C080935401D3CF0E94B902109228
:100940005201CECF0E948402FACF0E94BD02F7CF9F
:100950000E94BA02F4CF0E94BB02F1CF0E94BC02F7
:10096000EECF0E94BE02EBCF0E94F6020E9453001F
:100970008CE191E09F938F9385E291E09F938F9319
:1009800081E391E09F938F9383E491E09F938F9312
:100990000E94B6060E94480378948DB79EB70896C9
:1009A0000FB6F8949EBF0FBE8DBF0E9429030E9410
:1009B0003302FBCF5058BB27AA270E94F2040C94A5
:1009C000D1050E94C30538F00E94CA0520F039F411
:1009D0009F3F19F426F40C94C0050EF4E095E7FB54
:1009E0000C94BA05E92F0E94E20558F3BA17620782
:1009F00073078407950720F079F4A6F50C94040694
:100A00000EF4E0950B2EBA2FA02D0B01B901900129
:100A10000C01CA01A0011124FF27591B99F0593F6D
:100A200050F4503E68F11A16F040A22F232F342FB5
:100A30004427585FF3CF469537952795A795F04003
:100A40005395C9F77EF41F16BA0B620B730B840B18
:100A5000BAF09150A1F0FF0FBB1F661F771F881FD0
:100A6000C2F70EC0BA0F621F731F841F48F4879528
:100A700077956795B795F7959E3F08F0B0CF93951A
:100A8000880F08F09927EE0F9795879508950E9493
:100A90004E056894B1110C94050608950E94EA056C
:100AA00088F09F5798F0B92F9927B751B0F0E1F02F
:100AB000660F771F881F991F1AF0BA95C9F714C0DF
:100AC000B13091F00E940406B1E008950C94040640
:100AD000672F782F8827B85F39F0B93FCCF3869518
:100AE00077956795B395D9F73EF490958095709575
:100AF00061957F4F8F4F9F4F0895E89409C097FBF2
:100B00003EF490958095709561957F4F8F4F9F4FE4
:100B10009923A9F0F92F96E9BB279395F695879528
:100B200077956795B795F111F8CFFAF4BB0F11F4EB
:100B300060FF1BC06F5F7F4F8F4F9F4F16C0882392
:100B400011F096E911C0772321F09EE8872F762FC8
:100B500005C0662371F096E8862F70E060E02AF009
:100B60009A95660F771F881FDAF7880F96958795F5
:100B700097F9089597F99F6780E870E060E008951D
:100B80009FEF80EC089500240A94161617061806A5
:100B90000906089500240A94121613061406050681
:100BA0000895092E0394000C11F4882352F0BB0F12
:100BB00040F4BF2B11F460FF04C06F5F7F4F8F4F75
:100BC0009F4F089557FD9058440F551F59F05F3FB0
:100BD00071F04795880F97FB991F61F09F3F79F05F
:100BE00087950895121613061406551FF2CF4695E1
:100BF000F1DF08C0161617061806991FF1CF869563
:100C00007105610508940895E894BB276627772746
:100C1000CB0197F908950E941E060C94D1050E94FD
:100C2000C30538F00E94CA0520F0952311F00C94FA
:100C3000BA050C94C00511240C9405060E94E20527
:100C400070F3959FC1F3950F50E0551F629FF0011F
:100C5000729FBB27F00DB11D639FAA27F00DB11D38
:100C6000AA1F649F6627B00DA11D661F829F2227C1
:100C7000B00DA11D621F739FB00DA11D621F839F48
:100C8000A00D611D221F749F3327A00D611D231F1E
:100C9000849F600D211D822F762F6A2F11249F576C
:100CA00050409AF0F1F088234AF0EE0FFF1FBB1F6F
:100CB000661F771F881F91505040A9F79E3F51052E
:100CC00080F00C94BA050C9405065F3FE4F3983E5F
:100CD000D4F3869577956795B795F795E7959F5FD8
:100CE000C1F7FE2B880F911D9695879597F908956A
:100CF000CF93DF93EC012B8120FF33C026FF0AC086
:100D00002F7B2B838E819F8101969F838E838A8187
:100D100090E029C022FF0FC0E881F9818081082E70
:100D2000000C990B009719F420622B831AC031969E
:100D3000F983E8830EC0EA85FB85099597FF09C012
:100D40002B81019611F080E201C080E1822B8B8320
:100D500008C02E813F812F5F3F4F3F832E8399270D
:100D600002C08FEF9FEFDF91CF910895A0E0B0E038
:100D7000ECEBF6E00C94D409AE014B5F5F4FFA0147
:100D800061917191AF0180919401909195010E94C0
:100D90003307E2E00C94F0096091940170919501A1
:100DA0000E942A0908950F931F93CF93DF93E09138
:100DB0009401F0919501238121FF1BC08C01D0E0AB
:100DC000C0E0F80181918F016091940170919501CB
:100DD000DB011896ED91FC911997882331F0099564
:100DE000892B79F3DFEFCFEFECCF8AE00995892BE0
:100DF00019F08FEF9FEF02C08D2F9C2FDF91CF91C5
:100E00001F910F910895AEE0B0E0E9E0F7E00C9497
:100E1000D2090D891E898F89988D26E02C831A832B
:100E2000098397FF02C080E090E801979E838D833D
:100E3000AE01455E5F4F698D7A8DCE0101960E94AD
:100E400033074D815E8157FD0AC02F8138854217D7
:100E500053070CF49A01F801E20FF31F10822E964B
:100E6000E4E00C94EE09ABE0B0E0E9E3F7E00C94C9
:100E7000C4096C017B018A01FC01178216828381FF
:100E800081FFCCC1CE0101963C01F6019381F701AF
:100E900093FD859193FF81917F01882309F4BAC165
:100EA000853239F493FD859193FF81917F018532DD
:100EB00029F4B60190E00E942A09E7CF912C212C59
:100EC000312CFFE1F315D8F08B3279F038F4803211
:100ED00079F08332A1F4232D20611DC08D3261F0A1
:100EE000803369F4232D216016C0832D8260382E53
:100EF000E32DE4603E2E2AC0F32DF8601DC037FCC0
:100F00002DC020ED280F2A3040F08E32B9F436FC87
:100F100081C1232D2064322E19C036FE06C08AE01E
:100F2000989E200D1124922E11C0EAE02E9E200DD5
:100F30001124222EF32DF0623F2E08C08C3621F4AE
:100F4000832D8068382E02C0883641F4F70193FD66
:100F5000859193FF81917F018111B3CF982F9F7D60
:100F60009554933028F40C5F1F4F9FE399830DC075
:100F7000833631F0833771F0833509F059C021C0D1
:100F8000F801808189830E5F1F4F88248394912C00
:100F9000530113C02801F2E04F0E511CF801A0804C
:100FA000B18036FE03C0692D70E002C06FEF7FEFA5
:100FB000C5010E941F094C018201F32DFF773F2ECE
:100FC00016C0280122E0420E511CF801A080B18019
:100FD00036FE03C0692D70E002C06FEF7FEFC501E0
:100FE0000E9414094C01F32DF0683F2E820133FC5E
:100FF0001BC0822D90E088169906B0F4B60180E2FD
:1010000090E00E942A092A94F4CFF50137FC8591DB
:1010100037FE81915F01B60190E00E942A092110FC
:101020002A9421E0821A91088114910471F7E8C092
:10103000843611F0893641F5F80137FE07C060812A
:101040007181828193810C5F1F4F08C06081718123
:10105000072E000C880B990B0E5F1F4FF32DFF76A8
:101060003F2E97FF09C090958095709561957F4FB1
:101070008F4F9F4FF0683F2E2AE030E0A3010E947F
:101080006609882E861845C0853731F4232D2F7EBA
:10109000B22E2AE030E025C0932D997FB92E8F36ED
:1010A000C1F018F4883579F0B5C0803719F0883769
:1010B00021F0B0C0E92FE061BE2EB4FE0DC0FB2DC3
:1010C000F460BF2E09C034FE0AC0292F2660B22E5C
:1010D00006C028E030E005C020E130E002C020E199
:1010E00032E0F801B7FE07C060817181828193818F
:1010F0000C5F1F4F06C06081718180E090E00E5F41
:101100001F4FA3010E946609882E8618FB2DFF77CA
:101110003F2E36FE0DC0232D2E7FA22E891458F4AB
:1011200034FE0BC032FC09C0832D8E7EA82E05C074
:10113000B82CA32C03C0B82C01C0B92CA4FE0FC03E
:10114000FE01E80DF11D8081803321F49A2D997EF6
:10115000A92E09C0A2FE06C0B394B39404C08A2D80
:10116000867809F0B394A3FC11C0A0FE06C0B214A7
:1011700088F4280C922C9B180EC0B21460F4B601AF
:1011800080E290E00E942A09B394F7CFB21418F4D9
:101190002B1802C0982C212CA4FE10C0B60180E3AD
:1011A00090E00E942A09A2FE17C0A1FC03C088E7B4
:1011B00090E002C088E590E0B6010CC08A2D8678E8
:1011C00059F0A1FE02C08BE201C080E2A7FC8DE2D3
:1011D000B60190E00E942A09891438F4B60180E330
:1011E00090E00E942A099A94F7CF8A94F301E80DBF
:1011F000F11D8081B60190E00E942A098110F5CF8F
:10120000222009F442CEB60180E290E00E942A0931
:101210002A94F6CFF6018681978102C08FEF9FEF67
:101220002B96E2E10C94E009FC01059061507040BE
:101230000110D8F7809590958E0F9F1F0895FC019F
:101240006150704001900110D8F7809590958E0FF5
:101250009F1F08950F931F93CF93DF93FB0123816B
:1012600021FD03C08FEF9FEF2CC022FF16C04681E7
:101270005781248135814217530744F4A081B181FD
:101280009D012F5F3F4F318320838C9326813781CF
:101290002F5F3F4F3783268314C08B01EC01FB0186
:1012A0000084F185E02D0995892BE1F6D801169689
:1012B0008D919C911797019617969C938E931697F4
:1012C000CE01DF91CF911F910F910895FA01AA27C6
:1012D000283051F1203181F1E8946F936E7F6E5F79
:1012E0007F4F8F4F9F4FAF4FB1E03ED0B4E03CD027
:1012F000670F781F891F9A1FA11D680F791F8A1F0A
:10130000911DA11D6A0F711D811D911DA11D20D070
:1013100009F468943F912AE0269F11243019305D2A
:101320003193DEF6CF010895462F4770405D41931B
:10133000B3E00FD0C9F7F6CF462F4F70405D4A3368
:1013400018F0495D31FD4052419302D0A9F7EACF30
:10135000B4E0A6959795879577956795BA95C9F75F
:1013600000976105710508959B01AC010A2E069452
:101370005795479537952795BA95C9F7620F731F0B
:10138000841F951FA01D08952F923F924F925F9248
:101390006F927F928F929F92AF92BF92CF92DF9285
:1013A000EF92FF920F931F93CF93DF93CDB7DEB7EA
:1013B000CA1BDB0B0FB6F894DEBF0FBECDBF09947E
:1013C0002A88398848885F846E847D848C849B84D5
:1013D000AA84B984C884DF80EE80FD800C811B81E3
:1013E000AA81B981CE0FD11D0FB6F894DEBF0FBE12
:0A13F000CDBFED010895F894FFCF82
:1013FA0000000001000000000000C0020000000020
:10140A00000200000000E2020000000031303A321F
:10141A00333A3234004D6179202037203230313965
:10142A00000A0D4D6F64627573002530325800450D
:0E143A0072720025732025732025730A0D00A1
:00000001FF
