:100000000C9434000C9451000C9451000C94510049
:100010000C9451000C9451000C9451000C9451001C
:100020000C9451000C9451000C9451000C9451000C
:100030000C9451000C9451000C941A020C94510031
:100040000C9451000C9451000C94C1010C9451007B
:100050000C9451000C9451000C9451000C945100DC
:100060000C9451000C94510011241FBECFEFD8E026
:10007000DEBFCDBF11E0A0E0B1E0E4E9FBE002C0EB
:1000800005900D92A035B107D9F721E0A0E5B1E0C8
:1000900001C01D92A137B207E1F70E9486020C94BD
:1000A000C8050C94000010925401ECE7F0E088E0E1
:1000B00080838081806C808380818062808387E8F8
:1000C00080937A0010927B00089580917A0080647A
:1000D00080937A008FE99FE00197F1F700C000005C
:1000E0008091790080916B0190916C010E94AC022B
:1000F0008F3F2FEF920769F099279F938F938AE3A1
:1001000091E09F938F930E94EA020F900F900F90BF
:100110000F900895089508950895089508950895F5
:100120000895089520916B0130916C0128173907CB
:10013000C1F49091590180915801981791F0E09184
:10014000580181E08E0F80935801F0E0EB5AFE4F8A
:10015000868190915801903110F01092580190E0F2
:1001600008958EEF9FEF089520916D0130916E01FB
:100170002617370751F49091C00095FFFCCF80936C
:10018000C600082E000C990B08958EEF9FEF08957E
:1001900086E1E5E5F1E0DF011D928A95E9F7BFEF21
:1001A00022E587E0B15020408040E1F700C0000028
:1001B00087EC87BD82E084BD85BD80936E0085BBE2
:1001C00092E29093C4001092C5008093C00086E034
:1001D0008093C20088E98093C10080E284B915B899
:1001E000EBE6F1E08EE091E09383828380E091E0A2
:1001F00091838083089508958F3F11F08F5F089554
:100200008FEF08958F3F2FEF920711F00196089519
:100210008FEF9FEF08958091550187FF089578949F
:1002200008958FB7E5E5F1E090818078892B808390
:10023000F89408958CE491E09F938F930E94EA02D2
:100240000F900F900895909159018091580198173F
:1002500038F48091590190915801805F891B08956D
:100260008091590190915801891B0895CF93C82F0F
:100270008FB7909155018078892B80935501F89420
:100280000E942301C81798F4E0915801EC0FE03167
:1002900060F4F0E0EB5AFE4F868190E0209155012A
:1002A00027FF01C07894CF910895E051F2CF8FEFEE
:1002B0009FEFF4CF8FB7909155018078892B809371
:1002C0005501F8948091C00087FF08C08091C60056
:1002D00080935B018091C00087FDF8CF1092580198
:1002E0001092590110925A018091550187FF08958B
:1002F000789408952FB7309155012078232B2093BF
:100300005501F89420915701282331E009F430E099
:1003100090915701982B909357018091550187FF39
:1003200001C07894832F0895982F8FB7209155019D
:100330008078822B80935501F894209157012923CE
:1003400081E009F480E020915701909592239093E9
:1003500057019091550197FF0895789408959091D1
:100360005701982381E009F480E00895811102C0CB
:100370002D9808952D9A089595B180E2892785B921
:1003800008951F920F920FB60F9211248F939F938F
:10039000EF93FF938091C600823539F1809353012A
:1003A000E091590191E09E0F90935901F0E0EB5AD2
:1003B000FE4F868380915901803110F010925901CF
:1003C00090915901809158019817F9F0E0915901E5
:1003D000F0E0EB5AFE4F1682FF91EF919F918F91C3
:1003E0000F900FBE0F901F9018959091530190346D
:1003F000A9F698E088E10FB6F894A895809360007C
:100400000FBE90936000A895FFCF80915901811194
:100410000BC08FE08093590180915A018F3F09F002
:100420008F5F80935A01D2CF809159018150809380
:100430005901F2CF1F920F920FB60F9211242F93F2
:100440003F934F935F936F937F938F939F93AF935C
:10045000BF93EF93FF93809152018F5F8530E0F15E
:1004600010925201809151018F5F809351018091D0
:1004700050018823C1F0809156018F3F09F08F5FB2
:1004800080935601FF91EF91BF91AF919F918F9112
:100490007F916F915F914F913F912F910F900FBE80
:1004A0000F901F90189581E080935001789480916F
:1004B000510180FD19C081FD12C082FD1BC083FD6A
:1004C0001CC084FD1DC085FD12C086FD1CC087FFB9
:1004D00008C00E94910005C080935201D3CF0E94B2
:1004E0008B0010925001CECF0E948A00FACF0E945A
:1004F0008F00F7CF0E948C00F4CF0E948D00F1CFC7
:100500000E948E00EECF0E949000EBCF0E94C800A8
:100510000E9453008CE191E09F938F9385E291E0DC
:100520009F938F9381E391E09F938F9384E491E075
:100530009F938F930E94EA020E941A0178948DB7CC
:100540009EB708960FB6F8949EBF0FBE8DBF0E944F
:10055000FB000E946500FBCFCF93DF93EC012B8162
:1005600020FF33C026FF0AC02F7B2B838E819F8103
:1005700001969F838E838A8190E029C022FF0FC05D
:10058000E881F9818081082E000C990B009719F4FD
:1005900020622B831AC03196F983E8830EC0EA8566
:1005A000FB85099597FF09C02B81019611F080E228
:1005B00001C080E1822B8B8308C02E813F812F5F99
:1005C0003F4F3F832E83992702C08FEF9FEFDF912C
:1005D000CF910895A0E0B0E0E0EFF2E00C94A10527
:1005E000AE014B5F5F4FFA0161917191AF01809154
:1005F0006D0190916E010E940003E2E00C94BD0534
:10060000ABE0B0E0E6E0F3E00C9491056C017B0117
:100610008A01FC0117821682838181FFCCC1CE0141
:1006200001963C01F6019381F70193FD859193FFBB
:1006300081917F01882309F4BAC1853239F493FD91
:10064000859193FF81917F01853229F4B60190E075
:100650000E94F704E7CF912C212C312CFFE1F315F8
:10066000D8F08B3279F038F4803279F08332A1F40B
:10067000232D20611DC08D3261F0803369F4232D5C
:10068000216016C0832D8260382EE32DE4603E2E5B
:100690002AC0F32DF8601DC037FC2DC020ED280FB7
:1006A0002A3040F08E32B9F436FC81C1232D20640B
:1006B000322E19C036FE06C08AE0989E200D112405
:1006C000922E11C0EAE02E9E200D1124222EF32D31
:1006D000F0623F2E08C08C3621F4832D8068382EBE
:1006E00002C0883641F4F70193FD859193FF819113
:1006F0007F018111B3CF982F9F7D9554933028F4BB
:100700000C5F1F4F9FE399830DC0833631F0833711
:1007100071F0833509F059C021C0F80180818983C7
:100720000E5F1F4F88248394912C530113C028011E
:10073000F2E04F0E511CF801A080B18036FE03C0DC
:10074000692D70E002C06FEF7FEFC5010E94EC04DD
:100750004C018201F32DFF773F2E16C0280122E0C5
:10076000420E511CF801A080B18036FE03C0692DF5
:1007700070E002C06FEF7FEFC5010E94E1044C0101
:10078000F32DF0683F2E820133FC1BC0822D90E0D8
:1007900088169906B0F4B60180E290E00E94F70452
:1007A0002A94F4CFF50137FC859137FE81915F01E2
:1007B000B60190E00E94F70421102A9421E0821AE9
:1007C00091088114910471F7E8C0843611F08936DC
:1007D00041F5F80137FE07C0608171818281938104
:1007E0000C5F1F4F08C060817181072E000C880BC1
:1007F000990B0E5F1F4FF32DFF763F2E97FF09C019
:1008000090958095709561957F4F8F4F9F4FF068C1
:100810003F2E2AE030E0A3010E943305882E86187F
:1008200045C0853731F4232D2F7EB22E2AE030E0EB
:1008300025C0932D997FB92E8F36C1F018F48835D5
:1008400079F0B5C0803719F0883721F0B0C0E92FB2
:10085000E061BE2EB4FE0DC0FB2DF460BF2E09C0BA
:1008600034FE0AC0292F2660B22E06C028E030E0F0
:1008700005C020E130E002C020E132E0F801B7FE1F
:1008800007C060817181828193810C5F1F4F06C018
:100890006081718180E090E00E5F1F4FA3010E9494
:1008A0003305882E8618FB2DFF773F2E36FE0DC0B0
:1008B000232D2E7FA22E891458F434FE0BC032FC57
:1008C00009C0832D8E7EA82E05C0B82CA32C03C092
:1008D000B82C01C0B92CA4FE0FC0FE01E80DF11D1B
:1008E0008081803321F49A2D997EA92E09C0A2FE21
:1008F00006C0B394B39404C08A2D867809F0B394EB
:10090000A3FC11C0A0FE06C0B21488F4280C922CDF
:100910009B180EC0B21460F4B60180E290E00E9411
:10092000F704B394F7CFB21418F42B1802C0982C24
:10093000212CA4FE10C0B60180E390E00E94F704D1
:10094000A2FE17C0A1FC03C088E790E002C088E5C2
:1009500090E0B6010CC08A2D867859F0A1FE02C045
:100960008BE201C080E2A7FC8DE2B60190E00E941C
:10097000F704891438F4B60180E390E00E94F7048C
:100980009A94F7CF8A94F301E80DF11D8081B601A6
:1009900090E00E94F7048110F5CF222009F442CEA6
:1009A000B60180E290E00E94F7042A94F6CFF601A7
:1009B0008681978102C08FEF9FEF2B96E2E10C9426
:1009C000AD05FC010590615070400110D8F780958D
:1009D00090958E0F9F1F0895FC016150704001900B
:1009E0000110D8F7809590958E0F9F1F08950F9353
:1009F0001F93CF93DF93FB01238121FD03C08FEF72
:100A00009FEF2CC022FF16C046815781248135817B
:100A10004217530744F4A081B1819D012F5F3F4FDE
:100A2000318320838C93268137812F5F3F4F37831B
:100A3000268314C08B01EC01FB010084F185E02DBD
:100A40000995892BE1F6D80116968D919C911797FF
:100A5000019617969C938E931697CE01DF91CF91B6
:100A60001F910F910895FA01AA27283051F12031E2
:100A700081F1E8946F936E7F6E5F7F4F8F4F9F4F32
:100A8000AF4FB1E03ED0B4E03CD0670F781F891F74
:100A90009A1FA11D680F791F8A1F911DA11D6A0F42
:100AA000711D811D911DA11D20D009F468943F91F5
:100AB0002AE0269F11243019305D3193DEF6CF01F4
:100AC0000895462F4770405D4193B3E00FD0C9F7BA
:100AD000F6CF462F4F70405D4A3318F0495D31FD27
:100AE0004052419302D0A9F7EACFB4E0A69597957A
:100AF000879577956795BA95C9F700976105710550
:100B000008959B01AC010A2E069457954795379599
:100B10002795BA95C9F7620F731F841F951FA01DF3
:100B200008952F923F924F925F926F927F928F9291
:100B30009F92AF92BF92CF92DF92EF92FF920F936C
:100B40001F93CF93DF93CDB7DEB7CA1BDB0B0FB676
:100B5000F894DEBF0FBECDBF09942A883988488833
:100B60005F846E847D848C849B84AA84B984C884C9
:100B7000DF80EE80FD800C811B81AA81B981CE0FC0
:100B8000D11D0FB6F894DEBF0FBECDBFED010895A5
:040B9000F894FFCF07
:100B940000000001000000000000920000000000BE
:100BA400000200000000B4000000000031303A32BE
:100BB400303A3235004170722033302032303139CE
:100BC400000A0D4D6F64627573000D0A20253032E2
:100BD400780D0A0025732025732025730A0D000063
:00000001FF
